:020000020000FC
:1000000012C0EEC0EEC0EEC0EEC0EEC0EEC0EEC05C
:10001000EEC0EEC0EEC0EEC0EEC0EEC0EEC0EEC070
:10002000EEC0EEC0EEC0F8940FE50DBF04E00EBFC9
:100030000FEF04BB07BB04E005BB29E030E013D0A1
:10004000000000002AE037E00ED0000000002BE0A6
:1000500037E009D0000000002CE03FE004D00000B1
:100060000000D0D0FECFF894AA98000001E0F02E56
:10007000022F001F111FA9981F2115BB00000000AF
:10008000A99A0000002F001F111FA9981F2115BB5E
:1000900000000000A99A0000002F001F111FA9985E
:1000A0001F2115BB00000000A99A0000002F001FAF
:1000B000111FA9981F2115BB00000000A99A00007C
:1000C000002F001F111FA9981F2115BB0000000061
:1000D000A99A0000002F001F111FA9981F2115BB0E
:1000E00000000000A99A0000002F001F111FA9980E
:1000F0001F2115BB00000000A99A0000002F001F5F
:10010000111FA9981F2115BB00000000A99A00002B
:10011000032F001F111FA9981F2115BB000000000D
:10012000A99A0000002F001F111FA9981F2115BBBD
:1001300000000000A99A0000002F001F111FA998BD
:100140001F2115BB00000000A99A0000002F001F0E
:10015000111FA9981F2115BB00000000A99A0000DB
:10016000002F001F111FA9981F2115BB00000000C0
:10017000A99A0000002F001F111FA9981F2115BB6D
:1001800000000000A99A0000002F001F111FA9986D
:100190001F2115BB00000000A99A0000002F001FBE
:1001A000111FA9981F2115BB00000000A99A00008B
:1001B000000000000000A9980000000000000000FE
:1001C000AA9A089502D000E801C00FEF1FEF0000C7
:1001D0000000000000001A95D1F70A95B9F70895BC
:1001E00018951895189518951895189518951895A7
:1001F0001895189518951895189518951895189597
:100200001895189521E030E02EDF0000000022E074
:1002100030E029DF0000000023E030E024DF0000B0
:10022000000024E030E01FDF0000000025E030E0A7
:100230001ADF0000000026E030E015DF00000000BB
:1002400027E030E010DF0000000028E030E00BDFA6
:0802500000000000B7DF089573
:00000001FF
