:020000020000FC
:100000007AC0189518950FC01895189518951895D9
:100010001895189509C0189518951895189518955C
:10002000189518951895EEC00F930FB70F931F935F
:10003000EF93FF930091A3000F930078A9F0EBE9F1
:10004000F0E00F910770E00FFA1D10811FB90395C2
:10005000077009F46F980093A300FF91EF911F912F
:100060000F910FBF0F911895C09A00000000C09823
:100070000F9103950FB90A950068EDCF09E010E0E4
:100080000FD00AE01FE00CD00BE017E009D00CE025
:1000900011E006D010D016D003E01FEF01D0089574
:1000A000C09800000FB9779BFECF00001FB9779B67
:1000B000FECFC09A089501E010E0F2DF0395093009
:1000C000D9F708950FE100939B0000E000939C0096
:1000D00000E000939D0000E000939E0000E000938C
:1000E0009F0000E00093A00000E00093A10000E06A
:1000F0000093A2000895F8949924AA240AEAB02E45
:100100000FE50DBF04E00EBFE0E6F0E0002701932D
:10011000F430E9F7EF35D9F7EE27FF270FEF01BBF2
:1001200000E002BBB89AC09ABA9ABB9ABD9A02E59F
:100130000DB96C9A00000DB102BBA0DF42D0A1E066
:10014000B0E008E084D07894A89502D0A6D0FBCF88
:100150000091800010918100101709F40895E0E6E5
:10016000F0E013951F71E10FFA1D008110938100DB
:10017000000FECE9F2E0E00FFA1DC895002D0190A8
:10018000C895F02DE02F09941F932F9310918000B4
:100190002091810013951F71121721F40B2D2F91BF
:1001A0001F910895EF93FF93E0E6F0E0E10FFA1D51
:1001B0000083109380000A2DFF91EF912F911F91E2
:1001C0000895002700938000009381000CE005BD96
:1001D000002704BD0DE703BD00E809BF04D00027D8
:1001E0000FBF789408951F93EF93FF93E2E8F0E038
:1001F00018E0B192A192A1921A95D9F7FF91EF91CF
:100200001F9108950F930FB70F93EF93FF931F93D1
:10021000E2E8F0E018E000810F3F71F0E89401811E
:100220000150018309F0689402810040028321F4A7
:100230001EF00081A9DFB082ED5FFF4F1A9559F7DC
:100240001F91FF91EF910F910FBF0F9118951F9381
:100250002F93EF93FF93E2E8F0E028E0108110176E
:1002600029F0ED5FFF4F2A9541F0F8CFF894008315
:10027000A183B28378940A2D0BC0E2E8F0E028E075
:1002800010811B1599F3ED5FFF4F2A95C9F70B2DD0
:10029000FF91EF912F911F91089508954D015F01F6
:1002A00065016B01710177017D0183018A01B8014C
:1002B000BE01C401CA01D001D601DC01E201909A5D
:1002C000A4E6B0E002E0C3DF08959098A4E6B0E0B1
:1002D00001E0BDDF0895919AA8ECB0E004E0B7DF3B
:1002E00008959198A8ECB0E003E0B1DF0895929AE8
:1002F000A0E9B1E006E0ABDF08959298A0E9B1E093
:1003000005E0A5DF0895939AA2E3B0E008E09FDF3F
:100310006F9A08959398A2E3B0E007E098DF009108
:100320009B00001F00939B0000919C000795009389
:100330009C0000919D00001F00939D0000919E0075
:10034000079500939E0000919F00001F00939F005F
:100350000091A00007950093A0000091A100001F4C
:100360000093A1000091A20007950093A2000895B8
:10037000949AA0E4B6E00AE06ADF08959498A0E4B5
:10038000B6E009E064DF0895959AA0E8BCE00CE0CF
:100390005EDF08959598A0E8BCE00BE058DF089573
:1003A000969AA0E0B9E10EE052DF08959698A0E099
:1003B000B9E10DE04CDF0895979AA0E0B2E300E1C7
:1003C00046DF08959798A0E0B2E30FE040DF08957C
:00000001FF
