:020000020000FC
:1000000012C001C101C101C101C101C101C101C1D0
:1000100001C101C101C101C101C101C101C101C1D0
:1000200001C101C101C1F8940FE50DBF04E00EBF8D
:100030000FEF04BB04E005BB29E030E027D000004F
:1000400000002AE037E022D0000000002BE037E07B
:100050001DD0000000002CE03FE018D000000000A0
:10006000E4D0C6D00BD1C4D0E0D0C2D007D1C0D02C
:10007000DCD0BED003D1BCD0D8D0BAD0FFD0B8D05D
:10008000D4D0B6D0FBD0B4D022D1EACFF894AA987D
:10009000000001E0F02E022F001F111FA9981F2160
:1000A00015BB00000000A99A0000002F001F111FBF
:1000B000A9981F2115BB00000000A99A0000002F7D
:1000C000001F111FA9981F2115BB00000000A99A4D
:1000D0000000002F001F111FA9981F2115BB000051
:1000E0000000A99A0000002F001F111FA9981F21CE
:1000F00015BB00000000A99A0000002F001F111F6F
:10010000A9981F2115BB00000000A99A0000002F2C
:10011000001F111FA9981F2115BB00000000A99AFC
:100120000000002F001F111FA9981F2115BB000000
:100130000000A99A0000032F001F111FA9981F217A
:1001400015BB00000000A99A0000002F001F111F1E
:10015000A9981F2115BB00000000A99A0000002FDC
:10016000001F111FA9981F2115BB00000000A99AAC
:100170000000002F001F111FA9981F2115BB0000B0
:100180000000A99A0000002F001F111FA9981F212D
:1001900015BB00000000A99A0000002F001F111FCE
:1001A000A9981F2115BB00000000A99A0000002F8C
:1001B000001F111FA9981F2115BB00000000A99A5C
:1001C0000000002F001F111FA9981F2115BB000060
:1001D0000000A99A0000000000000000A99800009B
:1001E000000000000000AA9A089502D000E801C0B3
:1001F0000FEF1FEF00000000000000001A95D1F77C
:100200000A95B9F7089518951895189518951895A1
:100210001895189518951895189518951895189576
:100220001895189518951895189521E030E02EDF4F
:100230000000000022E036E629DF0000000023E095
:100240003FEF24DF0000000024E03FEF1FDF00004D
:10025000000025E03EE71ADF0000000026E03CE356
:1002600015DF0000000027E038E110DF000000008B
:1002700028E030E00BDF00000000089521E030E0CE
:1002800005DF0000000022E030E000DF0000000099
:1002900023E030E0FBDE0000000024E030E0F6DE8A
:1002A0000000000025E030E0F1DE0000000026E064
:1002B00030E0ECDE0000000027E030E0E7DE000088
:1002C000000028E030E0E2DE00000000089521E0B8
:1002D00030E0DCDE0000000022E03CE3D7DE00007E
:1002E000000023E032E0D2DE0000000024E03CE128
:1002F000CDDE0000000025E032E0C8DE0000000096
:1003000026E032E0C3DE0000000027E03CE7BEDE6E
:100310000000000028E030E0B9DE0000000065DFEA
:1003200021E030E0B3DE0000000022E03CE3AEDE7E
:100330000000000023E032E4A9DE0000000024E019
:1003400032E4A4DE0000000025E03EE79FDE00006E
:10035000000026E032E49ADE0000000027E032E4EC
:1003600095DE0000000028E030E090DE0000000094
:100370003CDF21E038E18ADE0000000022E032E5C7
:1003800085DE0000000023E036E480DE000000008F
:1003900024E03AE47BDE0000000025E032E576DE72
:1003A0000000000026E032E671DE0000000027E0D9
:1003B00032E46CDE0000000028E030E067DE000080
:1003C000000013DF21E030E061DE0000000022E0E9
:1003D00032E45CDE0000000023E032E457DE00007F
:1003E000000024E032E452DE0000000025E03EE39D
:1003F0004DDE0000000026E032E048DE0000000094
:1004000027E032E043DE0000000028E030E03EDE7E
:1004100000000000EADE21E030E038DE00000000ED
:1004200022E032E433DE0000000023E036E42EDE7A
:100430000000000024E03AE429DE0000000025E08E
:1004400032E524DE0000000026E032E61FDE000078
:10045000000027E032E41ADE0000000028E030E06F
:1004600015DE00000000C1DE21E030E00FDE0000FC
:10047000000022E032E40ADE0000000023E034E461
:1004800005DE0000000024E038E700DE0000000088
:1004900025E034E4FBDD0000000026E032E4F6DD78
:1004A0000000000027E032E4F1DD0000000028E059
:0C04B00030E0ECDD0000000098DE089554
:00000001FF
