:020000020000FC
:1000000012C004C304C304C304C304C304C304C3AD
:1000100004C304C304C348C259C202C302C302C317
:1000200002C372C201C3F8940FE50DBF04E00EBF16
:100030000027902F202E302E402E502E07BB04BBC1
:1000400001BB002E0FEF102E7AD123D256D208E931
:100050000AB97894FAD24514E9F37AD11DE09ED119
:100060001AE09CD1F2E0E0EE31D108EB0AB9EDD212
:10007000ECD2EBD2EAD2E9D2E8D2E7D2E6D2E5D2AC
:10008000E4D2B2D100EDA02E19EDDDD119E5DBD11E
:1000900013E7D9D115E0D7D116E1D5D112E0D3D1EC
:1000A00017E1D1D110E0CFD1F3E0E2E20FD108EBBC
:1000B0000AB9CBD2CAD2C9D2C8D2C7D2C6D2C5D247
:1000C000C4D2C3D2C2D21DD2F3E0EEE2FFD008EB1D
:1000D0000AB9BBD2BAD2B9D2B8D2B7D2B6D2B5D297
:1000E000B4D2B3D2B2D2B1D295FFFDCF7DD101ED62
:1000F000A02E08E0B02EF3E0E2E2E8D008EB0AB967
:10010000A4D2A3D2A2D2A1D2A0D29FD29ED29DD25B
:100110009CD29BD2F6D1F3E0EEE2D8D008EB0AB93C
:1001200094D293D292D291D290D28FD28ED28DD2BB
:100130008CD28BD28AD294FFFDCF87E088BBF3E0CC
:10014000EEE2C4D008EB0AB980D27FD27ED27DD253
:100150007CD27BD27AD279D278D277D24ED1B4D235
:100160001F932F931F911AD11F9118D11EE216D100
:1001700044D1AAD21F932F931F9110D11F910ED15A
:100180001EE20CD13AD1A0D21F932F931F9106D11A
:100190001F9104D11EE202D130D196D21F932F932A
:1001A0001F91FCD01F91FAD01EE2F8D026D18CD23C
:1001B0001F932F931F91F2D01F91F0D01EE2EED02B
:1001C0001CD182D21F932F931F91E8D01F91E6D0AC
:1001D0001EE2E4D012D178D21F932F931F91DED06C
:1001E0001F91DCD01EE2DAD008D16ED21F932F937C
:1001F0001F91D4D01F91D2D0F3E0E8E367D008EB91
:100200000AB923D222D221D220D21FD21ED21DD28D
:100210001CD21BD21AD219D218D217D216D215D28A
:1002200014D213D212D211D210D20FD20ED20DD2BA
:100230000CD20BD20AD209D208D207D206D205D2EA
:1002400004D203D202D201D200D2FFD1FED1FDD11D
:10025000FCD1FBD1FAD1F9D1F8D1F7D1F6D1F5D152
:10026000F4D1F3D1F2D1F1D1F0D1EFD1EED1EDD182
:10027000ECD1EBD1EAD1E9D1E8D1E7D1E6D1E5D1B2
:10028000E4D1E3D1E2D1E1D1E0D1DFD1DED1DDD1E2
:10029000DCD1DBD1DAD1D9D1D8D1D7D1D6D1D5D112
:1002A000D4D1D3D1D2D1D1D1D0D1CFD1CED1CDD142
:1002B000CCD1CBD1CAD1C9D1C8D1C7D1C6D1C5D172
:1002C000C4D1C3D1C2D1C1D1C0D1C1CE15911015F5
:1002D00009F40895EF93FF9361D0FF91EF91F6CF6A
:1002E00048656C6C6F2120554152542054657374DD
:1002F0002050726F6772616D6D2077656C636F6DF2
:100300006520746F20796F752E0D0A004E6F206383
:100310006F6D6D616E6420616C6C6F7765642E0D1E
:100320000A005374617274204932430D0A00456E0D
:1003300064204932430D0A000D0A0000FFCF002758
:10034000E0E6F0E010E801931A95E9F79C7F089544
:10035000541419F422E090FF0895042DF0E0E0E633
:10036000E00FF01D10810395003409F4002D402E9C
:100370009E7F202D0895321419F422E091FF0895F4
:10038000022DF0E0E0EAE00FF01D1081039500344B
:1003900009F4002D202E9D7F202D089521E091FD50
:1003A0000895032DF0E0E0EAE00FF01D10830395BF
:1003B000003409F4002D021509F49260302E202D2E
:1003C000089521E090FD0895052DF0E0E0E6E00FAE
:1003D000F01D10830395003409F4002D041509F471
:1003E0009160502E202D08950027E0EEF0E010E2FD
:1003F00001931A95E9F7937F0895981419F422E070
:1004000092FF0895082DF0E0E0EEE00FF01D10815E
:100410000395003109F4002D802E9B7F202D089537
:10042000761419F422E093FF0895062DF0E0E0EF32
:10043000E00FF01D10810395003109F4002D602EAE
:10044000977F202D089521E093FD0895072DF0E07A
:10045000E0EFE00FF01D10830395003109F4002D4B
:10046000061509F49860702E202D089521E092FD64
:100470000895092DF0E0E0EEE00FF01D10830395E4
:10048000003109F4002D081509F49460902E202DF8
:10049000089503E309B900E000BD00E00BB908E1ED
:1004A0000AB906E800BD0895F8940F930FB70F93AB
:1004B0001F932F93EF93FF931CB183DFFF91EF9175
:1004C0002F911F910F910FBF0F911895F8940F93D3
:1004D0000FB70F931F932F93EF93FF934CDF2030B1
:1004E00019F008ED0AB901C01CB9FF91EF912F91E5
:1004F0001F910F910FBF0F91189500E201B800B93D
:10050000089505EA06BF0895F8940F930FB70F9367
:100510001F932F93EF93FF9301B1087F39F00032BF
:1005200039F0003341F0083349F00AC06BD02FC0D6
:1005300063D05ADF2CC05CD057DF29C060D027C001
:10054000083039F0003129F0083171F0083261F0DB
:1005500016C0A02829F405E906BF46DF906217C03F
:10056000A3B805E806BF13C05BDF202121F405E92D
:1005700006BF90620CC013B905E806BF08C000347E
:1005800071F00834E9F00035F1F0083549F1FF91D8
:10059000EF912F911F910F910FBF0F911895B028D8
:1005A00021F405E906BF9061F2CF0B2D013021F057
:1005B00005EC06BFBA94EBCF05E806BFBA94E7CFC7
:1005C00019D012DFE4CF13B151DF0B2D013021F030
:1005D00005EC06BFBA94DBCF05E806BFBA94D7CFC7
:1005E00013B144DF9061D3CF906208959061089574
:1005F000906208959061089590629061089590626C
:1006000090610895906290610895089518951895E5
:100610001895189518951895189518951895189572
:100620001895189518951895189518EF00001A95B3
:10063000E9F7000008952FD02ED02DD02CD02BD04C
:100640002AD029D0F2DF0000089525D024D023D06D
:1006500022D021D020D01FD0E8DFE7DFE6DF0895E9
:100660001FD0F3DFF2DFF1DFF0DFEFDFEEDFEDDFF2
:1006700017D016D0000000000895000000001BD025
:10068000EFDFEEDFEDDFECDFEBDFEADFE9DFE8DF16
:1006900012D00000089518EF00001A95E9F70895A8
:1006A000FADFF9DFF8DFF7DFF6DFF5DFF4DFF3DF9E
:1006B000F2DFF1DF0895F4DFF3DFC7DFC6DFC5DF68
:1006C000C4DFEEDFEDDF08951F931F7006D0212FEA
:1006D0001F9112951F7001D00895103011F410E38E
:1006E0000895113011F411E30895123011F412E35A
:1006F0000895133011F413E30895143011F414E342
:100700000895153011F415E30895163011F416E329
:100710000895173011F417E30895183011F418E311
:100720000895193011F419E308951A3011F411E401
:1007300008951B3011F412E408951C3011F413E4F1
:1007400008951D3011F414E408951E3011F415E4D9
:06075000089516E408956F
:00000001FF
