:020000020000FC
:1000000012C0A2C0A2C0A2C0A2C0A2C0A2C0A2C070
:10001000A2C0A2C0A2C0A2C0A2C0A2C0A2C0A2C0D0
:10002000A2C0A2C0A2C0F8940FE50DBF04E00EBFAD
:1000300014D07FD040E0542F5F9BFECF1CB15D9B5E
:10004000FECF1CB925D043954031B1F740E0539520
:100050005170142F252F44D0EFCFAA98A998A898B3
:10006000A29AA19AA09A00E007BB0FEF08BB03E099
:100070005DD018E309D011E007D016E005D01EE0EE
:1000800003D012E001D00895F89442D0AA9803C09A
:10009000F8943ED0AA9AA998A89A0FEF07BB18BB6C
:1000A00044D0A89800E007BB0FEF08BB78940895F0
:1000B000F89400E007BB0FEF08BB2AD0AA9807C04E
:1000C000F89400E007BB0FEF08BB22D0AA9AA99AC8
:1000D000A89A2BD016B3A8987894089511E0D4CF9D
:1000E0002370220F220F220F022F220F220F100F38
:1000F000120F1068C9CF1068C7CF1F771064C4CF24
:1001000018E1C2CF1CE1C0CF10E1BECF14E1BCCFDB
:1001100000E007BB0FEF08BBAA98A99AA89A05D0E0
:10012000A89806B30078D1F708950AE00A95F1F788
:10013000089503E309B900E000BD00E00BB908E150
:100140000AB906E800BD08951895189518951895F0
:100150001895189518951895189518951895189537
:0C01600018951895189518951895189585
:00000001FF
