:020000020000FC
:1000000012C0189518951895189518951895189563
:10001000189583C0189518951895189518951895E2
:10002000189518951895F8940FE50DBF04E00EBFCC
:10003000AA24BA2CBA94E0E6F0E000270193F43049
:10004000E9F7EF35D9F7EE27FF27B1BAB89AB99A91
:10005000D0D008E70093BD0041D0A1E0B0E002E0BD
:1000600086D0789402D0A9D0FCCF00918000109166
:100070008100101709F40895E0E6F0E013951F7170
:10008000E10FFA1D008110938100000FECEBF1E00D
:10009000E00FFA1DC895002D0190C895F02DE02FB6
:1000A00009941F932F931091800020918100139544
:1000B0001F71121721F40B2D2F911F910895EF93AB
:1000C000FF93E0E6F0E0E10FFA1D0083109380005B
:1000D0000A2DFF91EF912F911F9108950027009312
:1000E00080000093810003E003BF03E802BF09B76B
:1000F000016009BF03D000270FBF08951F93EF933E
:10010000FF93E2E8F0E018E0B192A192A1921A9573
:10011000D9F7FF91EF911F9108950F930FB70F93A8
:1001200003E802BF09B7016009BF1F93EF93FF9374
:10013000E2E8F0E018E000810F3F71F0E8940181FF
:100140000150018309F0689402810040028321F488
:100150001EF00081A6DFB082ED5FFF4F1A9559F7C0
:10016000FF91EF911F910F910FBF0F9118951F9362
:100170002F93EF93FF93E2E8F0E028E0108110174F
:1001800029F0ED5FFF4F2A9541F0F8CFF8940083F6
:10019000A183B28378940A2D0BC0E2E8F0E028E056
:1001A00010811B1599F3ED5FFF4F2A95C9F70B2DB1
:1001B000FF91EF912F911F9108950895DD00E100C7
:1001C000ED00C09AA1E0B0E002E0D1DF1091BD00E7
:1001D00013951093BD0028D00895C098A1E0B0E019
:1001E00001E0C5DF1091BD0013951093BD001CD038
:1001F0000895AA98A998A898A29AA19AA09A00E00E
:1002000001BB0FEF02BB03E045D018E309D011E0BA
:1002100007D016E005D01EE003D012E001D008950B
:10022000F8942AD0AA9803C0F89426D0AA9AA9983C
:10023000A89A0FEF01BB12BB2CD0A89800E001BB1D
:100240000FEF02BB78940895F89400E001BB0FEF24
:1002500002BB12D0AA9807C0F89400E001BB0FEFD0
:1002600002BB0AD0AA9AA99AA89A13D010B3A89848
:100270007894089511E0D4CF00E001BB0FEF02BBEA
:10028000AA98A99AA89A05D0A89800B30078D1F79F
:0A02900008950AE00A95F1F70895B9
:00000001FF
