:020000020000FC
:1000000013C0189518950FC0189518951895189540
:100010001895189518951895189518951895189578
:1000200018951895189592C0F894AA24BA2CBA94E9
:100030000FE50DBF04E00EBFE0E6F0E000270193FE
:10004000F430E9F7EF35D9F7EE27FF27B1BA5DD0E5
:10005000A1E0B0E002E09FD0A1E0B0E004E09BD0DE
:10006000A1E0B0E006E097D0A1E0B0E008E093D0D6
:10007000A1E0B0E00AE08FD0A1E0B0E00CE08BD0CE
:10008000A1E0B0E00EE087D0A1E0B0E000E183D0D5
:10009000789402D0A6D0FCCF00918000109181000E
:1000A000101709F40895E0E6F0E013951F71E10FD1
:1000B000FA1D008110938100000FE4EEF1E0E00FE3
:1000C000FA1DC895002D0190C895F02DE02F0994D8
:1000D0001F932F93109180002091810013951F7121
:1000E000121721F40B2D2F911F910895EF93FF9379
:1000F000E0E6F0E0E10FFA1D0083109380000A2D86
:10010000FF91EF912F911F91089500270093800098
:10011000009381000CE005BD002704BD0DE703BD81
:1001200000E809BF04D000270FBF789408951F93FB
:10013000EF93FF93E2E8F0E018E0B192A192A19270
:100140001A95D9F7FF91EF911F9108950F930FB76B
:100150000F93EF93FF931F93E2E8F0E018E0008124
:100160000F3F71F0E89401810150018309F0689418
:1001700002810040028321F41EF00081A9DFB082D9
:10018000ED5FFF4F1A9559F71F91FF91EF910F9176
:100190000FBF0F9118951F932F93EF93FF93E2E8F2
:1001A000F0E028E01081101729F0ED5FFF4F2A954D
:1001B00041F0F8CFF8940083A183B28378940A2D9C
:1001C0000BC0E2E8F0E028E010811B1599F3ED5F29
:1001D000FF4F2A95C9F70B2DFF91EF912F911F919A
:1001E00008950895F100030109010F0115011B0194
:1001F000210127012D01330139013F0145014B0147
:10020000510157015D01909AA4E6B0E002E0C3DF1E
:1002100008959098A4E6B0E001E0BDDF0895919ABA
:10022000A8ECB0E004E0B7DF08959198A8ECB0E046
:1002300003E0B1DF0895929AA0E9B1E006E0ABDFF8
:1002400008959298A0E9B1E005E0A5DF0895939A9A
:10025000A0E2B3E008E09FDF08959398A0E2B3E046
:1002600007E099DF0895949AA0E4B6E00AE093DFEE
:1002700008959498A0E4B6E009E08DDF0895959A7A
:10028000A0E8BCE00CE087DF08959598A0E8BCE00A
:100290000BE081DF0895969AA0E0B9E10EE07BDFE4
:1002A00008959698A0E0B9E10DE075DF0895979A5A
:1002B000A0E0B2E300E16FDF08959798A0E0B2E319
:0602C0000FE069DF089564
:00000001FF
