:020000020000FC
:1000000012C0D4C0D4C0D4C0D4C0D4C0D4C0D4C012
:10001000D4C0D4C0D4C0D4C0D4C0D4C0D4C0D4C040
:10002000D4C0D4C0D4C0F8940FE50DBF04E00EBF17
:100030000027902F07BB04BB01BB002E0FEF102E33
:1000400007BB94D012E02AEA1F932F9342D02F913E
:100050001F9130C048656C6C6F212055415254206F
:10006000546573742050726F6772616D6D2077658F
:100070006C636F6D6520746F20796F752E0D0A00AB
:100080004E6F20636F6D6D616E6420616C6C6F7775
:1000900065642E0D0A005374617274204932430D59
:1000A0000A00456E64204932430D0A000D0A0D0A0C
:1000B0000D0A00002FD0103019F048D00995FACF62
:1000C0000FB70F9300E805BF789488950F910FBF85
:1000D000F1CF00916200063011F411E04FC003959A
:1000E00000936200E3E6F0E0009161001F932F931C
:1000F000102F22278894111F221FE10FF21F2F912A
:100100001F91119320830395063009F40027009373
:100110006100089510916200103009F408951A9555
:1001200010936200E3E6F0E000916000102F8894E5
:100130002227111F221FE10FF21F11912081039529
:10014000063009F40027009360000895E8E8F1E024
:1001500000278894111F001F111F001F3196E10F07
:10016000F01F05911491E02FF12F08950027E0E68C
:10017000F0E01FE001931A95E9F708950FEF07BB30
:1001800018BBF8948895FECF0000000001B600006F
:1001900002CC00000310010013E008B3012708BBE4
:1001A00013E097DF12E095DF0895FFCF18951895BB
:1001B00018951895189518951895189518951895D7
:1001C00018951895189518951895189518951895C7
:1001D00018EF00001A95E9F7000008952FD02ED0EF
:1001E0002DD02CD02BD02AD029D0F2DF00000895BA
:1001F00025D024D023D022D021D020D01FD0E8DF9A
:10020000E7DFE6DF08951FD0F3DFF2DFF1DFF0DF95
:10021000EFDFEEDFEDDF17D016D00000000008950D
:10022000000000001BD0EFDFEEDFEDDFECDFEBDFE7
:10023000EADFE9DFE8DF12D00000089518EF0000E0
:100240001A95E9F70895FADFF9DFF8DFF7DFF6DF4F
:10025000F5DFF4DFF3DFF2DFF1DF0895F4DFF3DF42
:0E026000C7DFC6DFC5DFC4DFEEDFEDDF0895C8
:00000001FF
