:020000020000FC
:1000000012C09BC19BC19BC19BC19BC19BC19BC19A
:100010009BC19BC19BC19AC0BCC099C199C199C1E8
:1000200099C1DFC098C1F8940FE50DBF04E00EBF81
:1000300000E0002E102E202E302E402E502E602E4E
:10004000702E802E902EA02EB02E07BB04BB01BBBD
:1000500010C0E0E6F0E010E101931A95E9F7E0E75F
:10006000F0E010E201931A95E9F7E02E0FEFF02E81
:10007000789422D021D020D01FD00F2D02BB1CD0CD
:100080001BD01AD019D00E2D02BBF3CFEAE9F0E055
:1000900011911060C9F03ED0FBCF48656C6C6F2E9B
:1000A00020415652204932433C3E52533233322093
:1000B00052656164792E000000EA1AEF00001A957B
:1000C000E9F70A95D1F70895559AFFCF03E309B9E7
:1000D00000E000BD00E00BB908E10AB906E800BD88
:1000E0000895F894A0E7B0E00B2D2A2D392D31307A
:1000F00021F0201711F431E00AC01127912EA20F30
:10010000B11F1C9133272395203109F42227A22EF9
:1001100078940895F894A0E8B0E0082D272DA00F5A
:100120001127B11F3C9333270395003109F40027B1
:10013000021711F431E0632E802E7894089500E2C6
:10014000E1B800B9089505EA06BF0895F8940F9341
:100150000FB70F931F932F93AF93BF93A0E7B0E018
:100160000B2D2A2DA00F1127B11F1CB11C93039535
:10017000003109F40027021711F421E0922EB02E6D
:10018000BF91AF912F911F910F910FBF0F91789455
:1001900018950F930FB70F931F932F933F93AF9320
:1001A000BF93A0E8B0E0082D272D362D313029F07F
:1001B000201719F408ED0AB90AC01127612EA20F01
:1001C000B11F1C911CB92395203109F42227722EEE
:1001D000BF91AF913F912F911F910F910FBF0F9141
:1001E0001895F8940F930FB70F931F93EF93FF9306
:1001F00001B1087F39F0003241F0003349F0083393
:1002000051F00CC094D096D038C08BD06CD035C093
:1002100082D069D032C088D08DD02FC0083039F05C
:10022000003129F0083171F0083261F01EC04E280B
:1002300029F405E906BF57D05FD01FC043B805E8D1
:1002400006BF1BC01E2829F405E906BF5ED04BD0AF
:1002500014C01A94F0E0E0E610E0E00DF11F008118
:1002600003B905E806BF0A9408C0003469F00834F1
:10027000D9F00035E1F0083561F1FF91EF911F9160
:100280000F910FBF0F9118953E2829F405E906BF7D
:100290003FD032D0F2CF032D013019F005EC06BF6C
:1002A000ECCF05E806BFE9CF39D026D0E6CFF0E0A5
:1002B000E8E6E20DFE1D03B1008323943A942394F3
:1002C000032D013019F005EC06BFD7CF05E806BFB6
:1002D000D4CFF0E0E8E6E20DFE1D03B100832394E5
:1002E0003A9416D0CACF0E2C1E2CE0E6F0E018E0AF
:1002F000E1921A95E9F708952E2C3E2CE8E6F0E0FD
:1003000018E0E1921A95E9F7089501E0502E08955A
:1003100002E0502E089501E8502E089502E8502E74
:10032000089503E8502E089504E8502E089505E836
:10033000502E08950FEF502E089518951895189582
:100340001895189518951895189518951895189545
:080350001895189518951895F1
:00000001FF
