:020000020000FC
:1000000066C0189518950FC01895189518951895ED
:1000100018951895189539C0189518952AC01895EF
:100020001895189518951F931FB71F93EF93FF937B
:100030000F93ECE6F0E005E010811F3F79F0E894C3
:1000400011811150118309F06894128110401283BC
:1000500029F426F01081E1D01FEF1083ED5FFF4FF0
:100060000A9551F70F91FF91EF911F911FBF1F91BB
:1000700018951F931FB71F9315B1143610F414E091
:10008000CCD01F911FBF1F9118951F931FB71F93AF
:10009000AF93BF932F9305E50CB91CB1123579F0DE
:1000A00020916000203021F0113411F416E0B5D019
:1000B0002F91BF91AF911F911FBF1F91189511E014
:1000C0001093600018E0AAE0B0E0BAD0F1CF0FE5DD
:1000D0000DBF04E00EBFE0E6F0E000270193F4302E
:1000E000E9F7EF35D9F7EE27FF2710E01FBF65D0FE
:1000F00058D078941CE015BD112714BD1DE713BD21
:1001000000E809BF09E109B900E000BD00E00BB952
:1001100008ED0AB906E800BD05E607B90FEF07BB11
:1001200000E008BB07D012D07894A89555D001D034
:10013000FBCF0895C19A12E0A4EFB1E081D00895F9
:10014000C19811E0A4EFB1E07BD0089513E0A8EED0
:10015000B3E076D00BEC06B90895C29A15E0ACE294
:10016000B1E06ED00895C2980895C39A17E0A8EE42
:10017000B3E066D00895C3980895112710936000E6
:1001800008950895E199FECFFFBBEEBBE09A1DB341
:100190000895E199FECFFFBBEEBB1DBBE29AE19A49
:1001A0000895EF93FF93E1E6F0E01FEF0BE011936A
:1001B0000A95E9F7FF91EF910895EF93FF93ECE62D
:1001C000F0E005E01FEF20E01193219321930A95C1
:1001D000D9F7FF91EF910895E1E6F0E010811F3F1C
:1001E000D9F0FF27110FE12FE257FD4FC895102DD1
:1001F0000190C895E12FF02DEF93FF930AE0E1E61F
:10020000F0E0F894118111930A95E1F71FEF119333
:100210007894FF91EF9109940895EF93FF932F93B2
:100220000F93E1E6F0E00BE021912F3F19F00A95E2
:1002300011F0FACF12930F912F91FF91EF91089542
:10024000EF93FF932F930F93ECE6F0E005E020810E
:10025000211729F0ED5FFF4F0A9521F0F8CFA18318
:10026000B28310C0ECE6F0E005E020812F3F29F0DA
:10027000ED5FFF4F0A9531F0F8CFF8941083A1831A
:10028000B28378940F912F91FF91EF910895990087
:100290009A00A000A600AD00B300B500BB00BD00F1
:0202A000C1009B
:00000001FF
