:020000020000FC
:1000000012C044C244C244C244C244C244C244C2F4
:1000100044C244C244C244C244C244C244C244C2B0
:1000200044C244C244C2F8940FE50DBF04E00EBFC1
:100030000FEF04BB04E005BB29E030E049E050E0ED
:10004000C8D0000000002AE037E04AE057E0C1D005
:10005000000000002BE037E04BE057E0BAD0000092
:1000600000002CE03FE04CE05FE0B3D00000000077
:100070001FD2FECFF894AA98000001E0F02E022FC4
:10008000001F111FA9981F2115BB00000000A99A8D
:100090000000002F001F111FA9981F2115BB000091
:1000A0000000A99A0000002F001F111FA9981F210E
:1000B00015BB00000000A99A0000002F001F111FAF
:1000C000A9981F2115BB00000000A99A0000002F6D
:1000D000001F111FA9981F2115BB00000000A99A3D
:1000E0000000002F001F111FA9981F2115BB000041
:1000F0000000A99A0000002F001F111FA9981F21BE
:1001000015BB00000000A99A0000002F001F111F5E
:10011000A9981F2115BB00000000A99A0000032F19
:10012000001F111FA9981F2115BB00000000A99AEC
:100130000000002F001F111FA9981F2115BB0000F0
:100140000000A99A0000002F001F111FA9981F216D
:1001500015BB00000000A99A0000002F001F111F0E
:10016000A9981F2115BB00000000A99A0000002FCC
:10017000001F111FA9981F2115BB00000000A99A9C
:100180000000002F001F111FA9981F2115BB0000A0
:100190000000A99A0000002F001F111FA9981F211D
:1001A00015BB00000000A99A0000002F001F111FBE
:1001B000A9981F2115BB00000000A99A00000000AB
:1001C00000000000A9980000000000000000AA9AAA
:1001D0000895F894AA98000001E0F02E022F001F65
:1001E000111FA9981F2115BB00000000A99A00004B
:1001F000002F001F111FA9981F2115BB0000000030
:10020000A99A0000002F001F111FA9981F2115BBDC
:1002100000000000A99A0000002F001F111FA998DC
:100220001F2115BB00000000A99A0000002F001F2D
:10023000111FA9981F2115BB00000000A99A0000FA
:10024000002F001F111FA9981F2115BB00000000DF
:10025000A99A0000002F001F111FA9981F2115BB8C
:1002600000000000A99A0000002F001F111FA9988C
:100270001F2115BB00000000A99A0000032F001FDA
:10028000111FA9981F2115BB00000000A99A0000AA
:10029000002F001F111FA9981F2115BB000000008F
:1002A000A99A0000002F001F111FA9981F2115BB3C
:1002B00000000000A99A0000002F001F111FA9983C
:1002C0001F2115BB00000000A99A0000002F001F8D
:1002D000111FA9981F2115BB00000000A99A00005A
:1002E000002F001F111FA9981F2115BB000000003F
:1002F000A99A0000002F001F111FA9981F2115BBEC
:1003000000000000A99A0000002F001F111FA998EB
:100310001F2115BB00000000A99A0000042F001F38
:10032000111FA9981F2115BB00000000A99A000009
:10033000002F001F111FA9981F2115BB00000000EE
:10034000A99A0000002F001F111FA9981F2115BB9B
:1003500000000000A99A0000002F001F111FA9989B
:100360001F2115BB00000000A99A0000002F001FEC
:10037000111FA9981F2115BB00000000A99A0000B9
:10038000002F001F111FA9981F2115BB000000009E
:10039000A99A0000002F001F111FA9981F2115BB4B
:1003A00000000000A99A0000002F001F111FA9984B
:1003B0001F2115BB00000000A99A0000052F001F97
:1003C000111FA9981F2115BB00000000A99A000069
:1003D000002F001F111FA9981F2115BB000000004E
:1003E000A99A0000002F001F111FA9981F2115BBFB
:1003F00000000000A99A0000002F001F111FA998FB
:100400001F2115BB00000000A99A0000002F001F4B
:10041000111FA9981F2115BB00000000A99A000018
:10042000002F001F111FA9981F2115BB00000000FD
:10043000A99A0000002F001F111FA9981F2115BBAA
:1004400000000000A99A0000002F001F111FA998AA
:100450001F2115BB00000000A99A00000000000049
:100460000000A9980000000000000000AA9A08956A
:1004700002D000E801C00FEF1FEF000000000000F5
:1004800000001A95D1F70A95B9F7089518951895AF
:1004900018951895189518951895189518951895F4
:1004A00018951895189518951895189518951895E4
:1004B00021E030E041E050E08CDE0000000022E06E
:1004C00030E042E056E685DE0000000023E030E048
:1004D00043E05FEF7EDE0000000024E030E044E017
:1004E0005FEF77DE0000000025E030E045E05EE7EA
:1004F00070DE0000000026E030E046E05CE369DEEC
:100500000000000027E030E047E058E162DE000034
:10051000000028E030E048E050E05BDE0000000032
:10052000A7DF21E030E041E050E053DE00000000B2
:1005300022E036E642E050E04CDE0000000023E01E
:100540003FEF43E050E045DE0000000024E03FEFD5
:1005500044E050E03EDE0000000025E03EE745E0DC
:1005600050E037DE0000000026E03CE346E050E0CB
:1005700030DE0000000027E038E147E050E029DEEF
:100580000000000028E030E048E050E022DE0000FB
:1005900000006EDF21E030E041E050E01ADE0000B4
:1005A000000022E030E042E05CE313DE00000000E7
:1005B00023E030E043E052E00CDE0000000024E0E5
:1005C00030E044E05CE105DE0000000025E030E0C2
:1005D00045E052E0FEDD0000000026E030E046E0AD
:1005E00052E0F7DD0000000027E030E047E05CE784
:1005F000F0DD0000000028E030E048E050E0E9DDF8
:100600000000000035DF21E030E041E050E0E1DDB6
:100610000000000022E03CE342E05CE3DADD0000A1
:10062000000023E032E043E052E4D3DD00000000AC
:1006300024E03CE144E052E4CCDD0000000025E091
:1006400032E045E05EE7C5DD0000000026E032E074
:1006500046E052E4BEDD0000000027E03CE747E052
:1006600052E4B7DD0000000028E030E048E050E050
:10067000B0DD00000000FCDE21E030E041E058E1A8
:10068000A8DD0000000022E03CE342E052E5A1DDED
:100690000000000023E032E443E056E49ADD00006D
:1006A000000024E032E444E05AE493DD000000005E
:1006B00025E03EE745E052E58CDD0000000026E045
:1006C00032E446E052E685DD0000000027E032E437
:1006D00047E052E47EDD0000000028E030E048E022
:1006E00050E077DD00000000C3DE21E038E141E0AA
:1006F00050E06FDD0000000022E032E542E052E40D
:1007000068DD0000000023E036E443E052E461DDF0
:100710000000000024E03AE444E052E45ADD000026
:10072000000025E032E545E05EE353DD0000000017
:1007300026E032E646E052E04CDD0000000027E013
:1007400032E447E052E045DD0000000028E030E000
:1007500048E050E03EDD000000008ADE21E030E0AD
:1007600041E050E036DD0000000022E032E442E0EB
:1007700052E42FDD0000000023E032E443E056E4C1
:1007800028DD0000000024E032E444E05AE421DDEA
:100790000000000025E03EE345E052E51ADD0000E0
:1007A000000026E032E046E052E613DD00000000E3
:1007B00027E032E047E052E40CDD0000000028E0D2
:1007C00030E048E050E005DD0000000051DE21E0AF
:1007D00030E041E050E0FDDC0000000022E032E4C7
:1007E00042E052E4F6DC0000000023E036E443E09F
:1007F00054E4EFDC0000000024E03AE444E058E771
:10080000E8DC0000000025E032E545E054E4E1DCEE
:100810000000000026E032E646E052E4DADC0000A8
:10082000000027E032E447E052E4D3DC000000009F
:1008300028E030E048E050E0CCDC0000000018DEAA
:1008400021E030E041E050E0C4DC0000000022E0A4
:1008500032E442E050E0BDDC0000000023E034E47C
:1008600043E050E0B6DC0000000024E038E744E05C
:1008700050E0AFDC0000000025E034E445E050E04B
:10088000A8DC0000000026E032E446E050E0A1DCF5
:100890000000000027E032E447E050E09ADC00006E
:1008A000000028E030E048E050E093DC0000000069
:1008B000DFDD21E030E041E050E08BDC00000000B3
:1008C00022E030E042E056E684DC0000000023E055
:1008D00030E043E05FEF7DDC0000000024E030E02A
:1008E00044E05FEF76DC0000000025E030E045E00A
:1008F0005EE76FDC0000000026E030E046E05CE3ED
:1009000068DC0000000027E030E047E058E161DCEF
:100910000000000028E030E048E050E05ADC000031
:100920000000A6DD21E030E041E050E052DC0000B4
:10093000000022E036E642E050E04BDC0000000020
:1009400023E03FEF43E050E044DC0000000024E0FF
:100950003FEF44E050E03DDC0000000025E03EE7D2
:1009600045E050E036DC0000000026E03CE346E0D5
:1009700050E02FDC0000000027E038E147E050E0C5
:1009800028DC0000000028E030E048E050E021DCF6
:10099000000000006DDD21E030E041E050E019DCB6
:1009A0000000000022E030E042E056E612DC0000E9
:1009B000000023E030E043E05FEF0BDC00000000CC
:1009C00024E030E044E05FEF04DC0000000025E0BC
:1009D00030E045E05EE7FDDB0000000026E030E0AF
:1009E00046E05CE3F6DB0000000027E030E047E093
:1009F00058E1EFDB0000000028E030E048E050E084
:100A0000E8DB0000000034DD21E030E041E050E0B0
:100A1000E0DB0000000022E036E642E050E0D9DBF7
:100A20000000000023E03FEF43E050E0D2DB000095
:100A3000000024E03FEF44E050E0CBDB000000008A
:100A400025E03EE745E050E0C4DB0000000026E082
:100A50003CE346E050E0BDDB0000000027E038E169
:100A600047E050E0B6DB0000000028E030E048E05E
:0C0A700050E0AFDB00000000FBDC08954C
:00000001FF
