:020000020000FC
:1000000083C0189518950FC01895189518951895D0
:100010001895189509C0189518951895189518955C
:10002000189518951895F5C00F930FB70F931F9358
:10003000EF93FF930091A3000F930078A9F0EBE9F1
:10004000F0E00F910770E00FFA1D10811FB90395C2
:10005000077009F46F980093A300FF91EF911F912F
:100060000F910FBF0F911895C09A00000000C09823
:100070000F9103950FB90A950068EDCFBA9ABB9A14
:10008000BD9A00E50DB90F931F9309E010E00CD065
:100090000AE01FE009D00BE017E006D00CE011E009
:1000A00003D01F910F910895C09800000FB9779B5E
:1000B000FECF00001FB9779BFECFC09A08950F9323
:1000C0001F9301E010E0F0DF03950930D9F71F918D
:1000D0000F9108950F9300E000939B0000939C0004
:1000E00000939D0000939E0000939F000093A0004A
:1000F0000093A1000093A2000F9108951F93102F69
:1001000001E0D2DF1F910895F8940FE50DBF04E0E0
:100110000EBFAA24BA2CBA94E0E6F0E000270193BF
:10012000F430E9F7EF35D9F7EE27FF270FEF01BBE2
:1001300000E002BB0FE001BDB89AC09A9FDFBFDFAD
:10014000C9DF46D0A1E0B0E002E088D0A8E8B3E182
:1001500003E084D07894A89502D0C0D0FBCF009162
:10016000800010918100101709F40895E0E6F0E096
:1001700013951F71E10FFA1D008110938100000F8C
:10018000EEEDF2E0E00FFA1DC895002D0190C89544
:10019000F02DE02F09941F932F9310918000209150
:1001A000810013951F71121721F40B2D2F911F91B0
:1001B0000895EF93FF93E0E6F0E0E10FFA1D00836E
:1001C000109380000A2DFF91EF912F911F910895B8
:1001D000002700938000009381000CE005BD0027FC
:1001E00004BD0DE703BD00E809BF04D000270FBF21
:1001F000789408951F93EF93FF93E2E8F0E018E0FE
:10020000B192A192A1921A95D9F7FF91EF911F9106
:1002100008950F930FB70F93EF93FF931F93E2E8A7
:10022000F0E018E000810F3F71F0E8940181015087
:10023000018309F0689402810040028321F41EF0DA
:100240000081A9DFB082ED5FFF4F1A9559F71F912A
:10025000FF91EF910F910FBF0F9118951F932F935F
:10026000EF93FF93E2E8F0E028E01081101729F007
:10027000ED5FFF4F2A9541F0F8CFF8940083A183FA
:10028000B28378940A2D0BC0E2E8F0E028E01081F8
:100290001B1599F3ED5FFF4F2A95C9F70B2DFF91C1
:1002A000EF912F911F91089504B71FEF11BB02BB6F
:1002B00003FF02C002EC0BC002FF01C0089501FF62
:1002C00001C0089500FF01C008950CE200C0F89439
:1002D000002ED4DEF4DE002D11DFFFCF08956E0175
:1002E00073017A01A801939AA2E3B0E002E0B6DFBD
:1002F0006F9A08959398A2E3B0E001E0AFDF009118
:100300009B00001F00939B0000919C0007950093A9
:100310009C0000919D00001F00939D0000919E0095
:10032000079500939E0000919F00001F00939F007F
:100330000091A00007950093A0000091A100001F6C
:100340000093A1000091A20007950093A2000895D8
:060350000FEFD4DEFDCF2B
:00000001FF
