:020000020000FC
:1000000012C0FBC0FBC0FBC0FBC0FBC0FBC0FBC001
:10001000FBC0FBC0FBC0C8C0D9C0F9C0F9C0F9C063
:10002000F9C0F9C0F9C0F8940FE50DBF04E00EBFA8
:100030000027902F202E302E402E502E07BB04BBC1
:1000400001BB002E0FEF102E4FD001E008BBA1D056
:1000500008E90AB97894F1D04514E9F303E008BB44
:100060004CD01DE070D01AE06ED0F0E0E4EA10D081
:1000700008EB0AB983E0402C502CEAD088BB451429
:10008000D1F3F0E0E0ED04D008EB0AB98395F3CFAB
:100090001591101509F40895EF93FF9354D0FF9133
:1000A000EF91F6CF48656C6C6F212055415254207A
:1000B000546573742050726F6772616D6D2077653F
:1000C0006C636F6D6520746F20796F752E0D0A005B
:1000D0004E6F20636F6D6D616E6420616C6C6F7725
:1000E00065642E0D0A00FFCF0027E0E6F0E010E87F
:1000F00001931A95E9F79C7F0895541419F422E0AE
:1001000090FF0895042DF0E0E0E6E00FF01D10816F
:100110000395003409F4002D402E9E7F202D089574
:10012000321419F422E091FF0895022DF0E0E0EA84
:10013000E00FF01D10810395003409F4002D202EEE
:100140009D7F202D089521E091FD0895032DF0E07D
:10015000E0EAE00FF01D10830395003409F4002D50
:10016000021509F49260302E202D089521E090FDB3
:100170000895052DF0E0E0E6E00FF01D10830395F3
:10018000003409F4002D041509F49160502E202D3F
:10019000089503E309B900E000BD00E00BB908E1F0
:1001A0000AB906E800BD0895F8940F930FB70F93AE
:1001B0001F932F93EF93FF931CB1D8DFFF91EF9123
:1001C0002F911F910F910FBF0F911895F8940F93D6
:1001D0000FB70F931F932F93EF93FF93A1DF20305F
:1001E00019F008ED0AB901C01CB9FF91EF912F91E8
:1001F0001F910F910FBF0F9118951895189518958D
:100200001895189518951895189518951895189586
:100210001895189518951895189518EF00001A95C7
:10022000E9F7000008952FD02ED02DD02CD02BD060
:100230002AD029D0F2DF0000089525D024D023D081
:1002400022D021D020D01FD0E8DFE7DFE6DF0895FD
:100250001FD0F3DFF2DFF1DFF0DFEFDFEEDFEDDF06
:1002600017D016D0000000000895000000001BD039
:10027000EFDFEEDFEDDFECDFEBDFEADFE9DFE8DF2A
:1002800012D00000089518EF00001A95E9F70895BC
:10029000FADFF9DFF8DFF7DFF6DFF5DFF4DFF3DFB2
:1002A000F2DFF1DF0895F4DFF3DFC7DFC6DFC5DF7C
:0802B000C4DFEEDFEDDF08956D
:00000001FF
