:020000020000FC
:1000000024C011C011C011C011C011C011C011C055
:1000100011C011C011C011C011C011C011C011C058
:1000200011C011C011C018951895189518951895FC
:100030001895189518951895189518951895189558
:1000400018951895189518951895F8940FE50DBF03
:1000500004E00EBF0FEF04BB01BB02BB00E005BB19
:1000600001E0F02E8BD060E395D07AD061E392D09E
:1000700077D062E38FD074D063E38CD071D0F3CFAC
:1000800006D00DD014D01BD022D029D0089590983E
:10009000000000002CD000000000909A0895919874
:1000A0000000000024D000000000919A089592986A
:1000B000000000001CD000000000929A0895939860
:1000C0000000000014D000000000939A0895949856
:1000D000000000000CD000000000949A089595984C
:1000E0000000000004D000000000959A0895032F3E
:1000F00029D0000027D0000025D0000023D0000028
:1001000021D000001FD000001DD000001BD0042F04
:1001100019D0000017D0000015D0000013D0000047
:1001200011D000000FD000000DD000000BD0000057
:100130000000000000000000A9980000000000007E
:1001400000000895001F111FA9981F2115BB000072
:10015000000000000000000000000000A99A0895BF
:1001600002D000E801C00FEF1FEF00000000000008
:1001700000001A95D1F70A95B9F7089539E040E0E3
:100180007FDF3AE047E07CDF3BE07ADF3CE04FE0B6
:1001900077DF089570E08894661F771F661F771FCA
:1001A000661F771FEFEEF0E0E60FF71F31E041E04A
:1001B00067DF32E041E064DF33E041E061DF34E0FB
:1001C00041E05EDF35E041E05BDF36E041E058DFF3
:1001D00037E041E055DF38E041E052DF0895007E2E
:1001E000424242427E00007E424242427E00007E07
:1001F000424242427E00007E424242427E00007EF7
:10020000424242427E00007E424242427E00007EE6
:10021000424242427E00007E424242427E00007ED6
:10022000424242427E00007E424242427E00007EC6
:10023000424242427E00007E424242427E00007EB6
:10024000424242427E00007E424242427E00007EA6
:10025000424242427E00007E424242427E00007E96
:10026000424242427E00007E424242427E00007E86
:10027000424242427E00007E424242427E00007E76
:10028000424242427E00007E424242427E00007E66
:10029000424242427E00007E424242427E00007E56
:1002A000424242427E00007E424242427E00007E46
:1002B000424242427E00007E424242427E00007E36
:1002C000424242427E00007E424242427E00007E26
:1002D000424242427E00007E424242427E00000094
:1002E000000000000000001010101000100000249A
:1002F00024000000000000247E24247E2400000846
:100300003E283E0A3E08006264081026460000109F
:1003100028102A443A0000081000000000000004E1
:100320000808080804000020101010102000000029
:1003300014083E081400000008083E0808000000E9
:10034000000000080810000000003E00000000004F
:100350000000001818000000020408102000003CF3
:10036000464A52623C000018280808083E00003C3B
:1003700042023C407E00003C420C02423C0000082D
:100380001828487E0800007E407C02423C00003C69
:10039000407C42423C00007E020408101000003CF9
:1003A000423C42423C00003C42423E023C000000D3
:1003B00000100000100000001000001010200000CD
:1003C0000408100804000000003E003E0000000089
:1003D000100804081000003C420408000800003C1B
:1003E0004A565E403C00003C42427E424200007C55
:1003F000427C42427C00003C424040423C0000784B
:10040000444242447800007E407C40407E00007EB2
:10041000407C40404000003C42404E423C00004294
:10042000427E42424200003E080808083E000002A8
:10043000020242423C0000444870484442000040EE
:10044000404040407E000042665A42424200004224
:1004500062524A464200003C424242423C00007C1A
:1004600042427C404000003C4242524A3C00007CF8
:1004700042427C444200003C403C02423C0000FEC0
:100480001010101010000042424242423C00004254
:1004900042424224180000424242425A2400004292
:1004A0002418182442000082442810101000007EF6
:1004B000040810207E00000E080808080E00000046
:1004C0004020100804000070101010107000001080
:1004D00038541010100000000000000000FF001051
:1004E000080000000000000038043C443C000020EC
:1004F000203C22223C0000001C2020201C00000484
:10050000043C44443C000000384478403C00000C6B
:1005100010181010100000003C44443C0438004007
:1005200040784444440000100030101038000004AB
:10053000000404042418002028303028240000106F
:10054000101010100C0000006854545454000000A7
:1005500078444444440000003844444438000000D7
:1005600078444478404000003C44443C0406000089
:100570001C202020200000003840380478000010A3
:10058000381010100C0000004444444438000000AF
:10059000444428281000000044545454280000000B
:1005A00044281028440000004444443C043800001F
:1005B0007C0810207C00000E083008080E0000089F
:1005C0000808080808000070100C101070000014D3
:1005D0002800000000003C4299A1A199423C003C47
:1005E00042427E424200007C407C42427C00007CD1
:1005F000427C42427C00007C404040404000001C65
:100600002222227F8100007E407C40407E000092BA
:10061000543854929200003C420C02423C0000428A
:10062000464A526242001852464A52624200004410
:10063000487048444200001E22222222420000420A
:10064000665A424242000042427E42424200003C20
:10065000424242423C00007E424242424200007C12
:1006600042427C404000003C424040423C0000FE90
:100670001010101010000042422418106000007C7E
:100680009292927C100000422418182442000042EA
:10069000424242427F01004242423E020200009238
:1006A00092929292FE00009292929292FF0100E04A
:1006B000203C22223C00008282F28A8AF200004022
:1006C000407C42427C00003C421E02423C00009CB6
:1006D000A2A2E2A29C00003E42423E224200000052
:1006E00038043C443C00003C40784444380000005E
:1006F0007844784478000000784040404000000092
:100700001C2424247E000000384478403C00000073
:100710005454385454000000780418047800000041
:10072000444C546444000810444C54644400000099
:1007300048507048480000001C2424244400000055
:10074000446C54544400000044447C444400000081
:1007500038444444380000003C4444444400AA0067
:10076000AA00AA00AA00AA55AA55AA55AA55FFAAE6
:10077000FFAAFFAAFFAA181818181818181818188E
:1007800018F8F81818181818F81818F81818242451
:1007900024E4E4242424000000FCFC24242400009D
:1007A000F81818F818182424E40404E42424242451
:1007B0002424242424240000FC0404E424242424E9
:1007C000E40404FC0000242424FCFC0000001818AD
:1007D000F81818F80000000000F8F8181818181891
:1007E000181F1F000000181818FFFF00000000006D
:1007F00000FFFF1818181818181F1F1818180000E5
:1008000000FFFF000000181818FFFF18181818182C
:100810001F18181F181824242427272424242424CC
:100820002720203F000000003F20202724242424EC
:10083000E70000FF00000000FF0000E7242424245C
:100840002720202724240000FF0000FF000024248C
:10085000E70000E724241818FF0000FF000024240C
:1008600024FFFF0000000000FF0000FF1818000038
:1008700000FFFF2424242424243F3F0000001818F4
:100880001F18181F000000001F18181F181800005C
:10089000003F3F242424242424FFFF242424181868
:1008A000FF0000FF1818181818F8F80000000000E2
:1008B000001F1F181818FFFFFFFFFFFFFFFF0000BA
:1008C0000000FFFFFFFFF0F0F0F0F0F0F0F00F0F8E
:1008D0000F0F0F0F0F0FFFFFFFFF000000000000C2
:1008E000784478404000000038444044380000001C
:1008F0007C1010101000000044442810600000001C
:10090000107C927C10000000442810284400000055
:10091000444444447E0000004444443C040000003D
:10092000545454547C000000545454547E0000002D
:1009300060203E223E00000042427A4A7A000000D7
:1009400040407C447C00000038441C4438000000D7
:100950005E5272525E0000003C443C24440066003B
:100960007E407E407E002800384478403C00007E77
:10097000424242427E00007E424242427E00007E6F
:10098000424242427E00007E424242427E00007E5F
:10099000424242427E00007E424242427E000018B5
:1009A00024241800000000000018180000000000B7
:1009B0000018180000000002044468381000000EFF
:1009C00048486858480000423C24243C420000004B
:0E09D000FFFFFFFF000000000000000000001D
:00000001FF
