:020000020000FC
:1000000012C0189518951895189518951895189563
:100010001895189518951895189518951895189578
:10002000189518951895F8940FE50DBF04E00EBFCC
:1000300065D085D0789400C02FD0103019F048D00A
:100040000995FACF0FB70F9300E805BF789488950C
:100050000F910FBFF1CF00916200003111F411E058
:1000600055C0039500936200E3E6F0E00091610063
:100070001F932F93102F22278894111F221FE10F07
:10008000F21F2F911F91119320830395003109F4E2
:10009000002700936100089510916200103009F468
:1000A00008951A9510936200E3E6F0E00091600075
:1000B000102F88942227111F221FE10FF21F119188
:1000C00020810395003109F4002700936000089512
:1000D000E8E1F1E01F9300278894111F001F111F12
:1000E000001FE10FF01F05911F91011729F40591E1
:1000F0001491E02FF12F089512E008C00027E0E6E8
:10010000F0E013E201931A95E9F708950FEF07BBAA
:1001100018BBF8948895FECF00000000017E000017
:100120000294000003CC000013E008B3012708BBD1
:1001300013E091DF13E08FDF12E08DDF08950FEF02
:1001400007BB12E088DF089518EF00001A95E9F761
:10015000000008952FD02ED02DD02CD02BD02AD017
:1001600029D0F2DF0000089525D024D023D022D05A
:1001700021D020D01FD0E8DFE7DFE6DF08951FD0D1
:10018000F3DFF2DFF1DFF0DFEFDFEEDFEDDF17D0DF
:1001900016D0000000000895000000001BD0EFDF23
:1001A000EEDFEDDFECDFEBDFEADFE9DFE8DF12D0E7
:1001B0000000089518EF00001A95E9F70895FADF96
:1001C000F9DFF8DFF7DFF6DFF5DFF4DFF3DFF2DF8B
:1001D000F1DF0895F4DFF3DFC7DFC6DFC5DFC4DF7B
:0601E000EEDFEDDF0895E3
:00000001FF
