:020000020000FC
:1000000012C0189518951895189518951895189563
:100010001895B2C0189518951895189518951895B3
:10002000189518951895F8940FE50DBF04E00EBFCC
:1000300066D073D020D1789400C02FD0103019F042
:1000400048D00995FACF0FB70F9300E805BF789411
:1000500088950F910FBFF1CF00916200033011F42A
:1000600011E055C0039500936200E3E6F0E00091D3
:1000700061001F932F93102F22278894111F221F96
:10008000E10FF21F2F911F911193208303950330ED
:1000900009F4002700936100089510916200103068
:1000A00009F408951A9510936200E3E6F0E00091D8
:1000B0006000102F88942227111F221FE10FF21FCA
:1000C000119120810395033009F40027009360000B
:1000D0000895ECEFF1E01F9300278894111F001F93
:1000E000111F001FE10FF01F05911F91011729F447
:1000F00005911491E02FF12F089512E008C0002718
:10010000E0E6F0E019E001931A95E9F70895F89414
:100110000FEF07BB18BB8895FECF03E003BF03E8D2
:1001200002BF09B7016009BF0027E9E6F0E01CE063
:1001300001931A95E9F708951F932F933F9333E0A6
:10014000E9E6F0E0132F1A9522278894111F221F49
:10015000111F221FE10FF21F0081003049F43F916F
:100160002F911F91119331934193208310E00895B3
:100170003A9531F711E008950F930FB70F931F933E
:100180002F933F93EF93FF9303E802BF33E0E9E639
:10019000F0E0132F1A9522278894111F221F111F98
:1001A000221FE10FF21F0081003079F401930193C7
:1001B000019300833A9559F7FF91EF913F912F9169
:1001C0001F910F910FBF0F911895319610811A95BD
:1001D0001F3F11F01083EECF108331961081103045
:1001E00019F01A951083E6CF31962081102F002741
:1001F00000830293029302932FDFDCCF0000000004
:10020000017F000002080100030D0100041A010033
:1002100013E008B3012708BB08950091750003950A
:1002200003950093750008BB14E020E031EE43E035
:1002300083DF089500E008BB13E020E031EE43E0E7
:100240007BDF0895F89404B700FF01C008C001FFE8
:1002500001C005C002FF01C002C003FF00C0A89595
:1002600001B5086101BD077F01BD089500E0086088
:1002700001BD0895A89501E0009375000FEF07BB3D
:0C02800013E020E030E040E057DF08957C
:00000001FF
