:020000020000FC
:1000000024C011C011C011C011C011C011C011C055
:1000100011C011C011C011C011C011C011C011C058
:1000200011C011C011C018951895189518951895FC
:100030001895189518951895189518951895189558
:1000400018951895189518951895F8940FE50DBF03
:1000500004E00EBF0FEF04BB07BB08BB00E005BB0D
:1000600001E0F02E72D0FFCF05D00CD013D01AD003
:1000700021D00895C0980000000024D000000000A6
:10008000C09A0895C198000000001CD00000000034
:10009000C19A0895C2980000000014D0000000002A
:1000A000C29A0895C398000000000CD00000000020
:1000B000C39A0895C4980000000004D00000000016
:1000C000C49A0895032F25D0000023D0000021D02A
:1000D00000001FD000001DD000001BD0000019D070
:1000E000000017D0042F15D0000013D0000011D04D
:1000F00000000FD000000DD000000BD0000009D090
:10010000000007D000000000000000000000A998D7
:100110000895001F111FA9981F2115BB00000000A2
:1001200000000000000000000000A99A089502D01D
:1001300000E801C00FEF1FEF00000000000000000A
:100140001A95D1F70A95B9F7089539E040E08CDFA8
:100150003AE047E089DF3BE087DF3CE04FE084DFC7
:10016000089531E0459180DF32E045917DDF33E055
:1001700045917ADF34E0459177DF35E0459174DFD2
:1001800036E0459171DF37E045916EDF38E045910B
:040190006BDF089584
:00000001FF
