:020000020000FC
:1000000012C0CDC0CDC0CDC0CDC0CDC0CDC0CDC043
:10001000CDC0CDC0CDC0CDC0CDC0CDC0CDC0CDC078
:10002000CDC0CDC0CDC0F8940FE50DBF04E00EBF2C
:100030000FEF04BB04E005BB39E040E013D03AE029
:1000400047E010D03BE00ED03CE04FE00BD0F0E0BA
:10005000E0E601E018E20083039531961A95D9F79E
:100060001AD0FECFF89408E0E02E00E0002EAA9807
:1000700009D008D007D006D005D004D003D002D0D4
:10008000AA9A08954FD04ED04DD04CD04BD04AD0E4
:1000900049D048D00895F89408E0E02E00E0002E02
:1000A000AA9831E0F0E0E0E61ED032E0F0E0E1E6D0
:1000B0001AD033E0F0E0E2E616D034E0F0E0E3E618
:1000C00012D035E0F0E0E4E60ED036E0F0E0E5E610
:1000D0000AD037E0F0E0E6E606D038E0F0E0E7E608
:1000E00002D0AA9A089540811DD0EE0DF01D4081E6
:1000F00019D0EE0DF01D408115D0EE0DF01D4081A0
:1001000011D0EE0DF01D40810DD0EE0DF01D40819F
:1001100009D0EE0DF01D408105D0EE0DF01D40819F
:1001200001D00895032F1FD000001DD000001BD068
:10013000000019D0000017D0000015D0000013D027
:10014000000011D0042F0FD000000DD000000BD004
:10015000000009D0000007D0000005D0000003D047
:10016000000001D00895001F111FA9981F2115BB81
:100170000000000000000000000000000000A99A3C
:10018000089502D000E801C00FEF1FEF000000004B
:10019000000000001A95D1F70A95B9F7089518954F
:1001A00018951895189518951895189518951895E7
:1001B00018951895189518951895189518951895D7
:0201C000189590
:00000001FF
